:020000040800F2
:10000000480F0020010100084F140008711100087A
:100010004D14000891010008CF32000800000000D4
:10002000000000000000000000000000F11C0008BB
:1000300093010008000000004D170008F31C0008A1
:100040001B0100081B0100081B0100081B01000820
:100050001B0100081B0100081B0100081B01000810
:100060001B0100081B0100081B0100081B01000800
:100070001B0100081B0100081B0100081B010008F0
:100080001B0100081B0100081B0100084D3200087D
:10009000593200081B0100081B0100081B01000861
:1000A0001B0100081B0100081B0100081B010008C0
:1000B0001B0100081B0100081B0100081B010008B0
:1000C0001B0100081B0100081B0100081B010008A0
:1000D0001B0100081B0100081B0100081B01000890
:1000E0001B0100081B0100081B010008DFF80CD0F1
:1000F00000F03CF80048004711330008480F00208A
:100100000648804706480047FEE7FEE7FEE7FEE7B1
:10011000FEE7FEE7FEE7FEE7FEE7FEE7571D000805
:10012000ED00000840EA01039B0703D009E008C97D
:10013000121F08C0042AFAD203E011F8013B00F8AC
:10014000013B521EF9D27047D2B201E000F8012BF8
:10015000491EFBD270470022F6E710B513460A4647
:1001600004461946FFF7F0FF204610BD064C074D28
:1001700006E0E06840F0010394E807009847103477
:10018000AC42F6D3FFF7B6FFA4330008C43300082F
:10019000FEE7704770470000014880687047000024
:1001A0007000002002488168027811448160704725
:1001B00070000020074810B5016841F0100101608F
:1001C000032000F075F8002000F006F800F024F895
:1001D000002010BD0020024070B50D4D04464FF4C4
:1001E0007A712878B1FBF0F00A490968B1FBF0F0A8
:1001F00000F0AAFF48B9102C07D200222146501E59
:1002000000F036F800206C6070BD012070BD000069
:10021000700000207C0000200C4808B5816941F086
:1002200001018161816901F001010091C16941F021
:100230008051C161C06900F080500090044841685D
:1002400021F0E06141F00071416008BD0010024002
:1002500000000140002809DB00F01F02012191404D
:100260004009800000F1E020C0F800117047000054
:10027000F0B40E4B1B680C46C3F30223C3F1070511
:10028000042D00D90425191D072901D2002300E0FF
:10029000DB1E012606FA05F1491E214099409E40C9
:1002A000761E16403143F0BC03F012B80CED00E0AE
:1002B000064900F0070208684FF6FF03184040EABD
:1002C0000220034A10430860704700000CED00E074
:1002D0000000FA0510B50C0607D501F0070101EB87
:1002E000810100EBC100283005E001EB810100EB4A
:1002F000C10000F5B47099B232B1012202730181DC
:10030000190C4181002010BD00220273C180F9E761
:10031000704701EB810200EBC202D0F8E802D26B19
:1003200001F091BE01EB810200EBC202D0F8E802BD
:10033000D2F87C2101F0EABE70B504460B0601F04C
:10034000070000EB800104EBC1014FF001024FF008
:10035000000503D581F82920283103E081F869518F
:1003600001F5B471087094F8A802012808D084F847
:10037000A822206802F004FC84F8A852002070BD76
:10038000022070BD70B5044601F00F006268904213
:1003900001D9012070BD0B0601F0070000EB8001C0
:1003A00004EBC1014FF001024FF0000503D581F8C5
:1003B0002920283103E081F8695101F5B4718D706D
:1003C000087094F8A802012808D084F8A8222068B0
:1003D00002F073FC84F8A852002070BD022070BDAA
:1003E0002DE9F05F04685FEA424C0B788D69B4F840
:1003F00050C04FF000064BF68F7948F2800A48F65D
:100400008F7B48F2C00E4FF480672AD54FF0020868
:1004100008EBC308C44407EB4C07E45BC4F30904CE
:10042000A54203D32D1B8D6101D00BE08E610668C0
:1004300036F8235005EA090585F4005545EA0A0512
:1004400026F82350520609D50D78036833F8252085
:1004500002EA0B0242EA0E0223F8252084B30A893D
:1004600029E04FF0060808EBC308C44407EB4C072B
:10047000E45BC4F30904A54203D32D1B8D6101D0B5
:100480000BE08E61066836F8235005EA090585F40D
:10049000005545EA0A0526F82350520609D40B7880
:1004A000056835F8232002EA0B0242EA0E0225F81D
:1004B00023202CB14A8949690068234602F0D6FE00
:1004C0002046BDE8F09F2DE9F05F05460C46006828
:1004D0005FEA426C16462278A369B0F850C04FF02C
:1004E000000148F68F774CF280094FF6FF7B4FF4FE
:1004F000004E4FF4806A6CD54FF0020808EBC2083A
:10050000E0440AEB480C30F80C00C0F309008342C9
:1005100011D91B1AA3610FD0730407D52E6836F8C2
:1005200022303B4043EA090326F8223094F8242085
:10053000012A08D0C6E0A16111462846FFF7E9FE6E
:1005400070046CD4BEE0626902446261E2690244F4
:10055000E2612369226A9A4202D31846111A03E023
:1005600084F824100AB110462162617811B1012982
:1005700023D02BE02968B1F850201144227801EBF8
:10058000021101F2044148B13E280FD84208C307C6
:1005900000D0521C0BEA82220A8017E00A8822F45B
:1005A000F8420A800A8842F40042F5E74209C3068D
:1005B00000D1521E4EEA8222EEE72968B1F850209F
:1005C0001144227801EB0211A1F8040483B22289BC
:1005D00074E04FF0060808EBC208E0440AEB480C50
:1005E00030F80C00C0F30900834211D31B1AA36139
:1005F0000FD0730407D42E6836F822303B4043EA0C
:10060000090326F8223094F82420012A11D059E059
:10061000A16111462846FFF77CFE700452D422786F
:10062000296831F82200384040EA090021F8220008
:1006300048E0626902446261E2690244E26123695E
:10064000226A9A4203D31846111A216204E00AB1C1
:100650001046216284F824106278296812B1012AB8
:1006600022D029E0B1F850201144227801EB021188
:1006700001F20C4148B13E280FD84208C30700D010
:10068000521C0BEA82220A8016E00A8822F4F84201
:100690000A800A8842F40042F5E74209C30600D105
:1006A000521E4EEA8222EEE7B1F850201144227821
:1006B00001EB0211A1F80C04628983B26169286818
:1006C00002F0F2FD2278296831F8220048F6BF7363
:1006D000184080F0300048F28003184321F82200CF
:1006E0000020BDE8F09F10B5044690F8A80201284C
:1006F0000AD0012084F8A802080607D501F00701F6
:10070000206802F0A1FD04E0022010BD206802F084
:1007100099FD002084F8A80210BD01F0070101EB4B
:10072000810100EBC100D0F8840170472DE9F04150
:1007300004460F0601F0070000EB800104EBC10145
:100740004FF001064FF0000503D581F829602831EC
:1007500003E081F8695101F5B47108700A61CB704A
:100760004A7802B1C881022B00D10D7194F8A80219
:10077000012809D084F8A862206802F0D3F828463E
:1007800084F8A852BDE8F0810220FBE770B50C4662
:1007900001F0070505EB850100EBC101C1E95F230D
:1007A0000022C1F8842181F8692181F8685101F59E
:1007B000B4716207006802F0D5FA002070BD70B510
:1007C00004460D4601F007006168884201D9012006
:1007D00070BD29064FF000064FF0010207D500EB6F
:1007E000800104EBC10181F82920283107E005EBE5
:1007F000850104EBC10181F8696101F5B4718A706A
:10080000087094F8A802012807D084F8A82220686C
:1008100002F08FFA680702D006E0022070BD04F5EE
:100820002C71206802F047FA84F8A862002070BD9D
:1008300070B50C4601F0070505EB850100EBC10121
:10084000C1E90F23012281F84C208B6400234B6403
:1008500081F8292001F8285F6207006802F082FA17
:10086000002070BD1FB50446006802F0FBFC0004C8
:1008700002D5204600F0ECFD206802F0F3FC4005B4
:100880000CD5206830F8441F21F480610180204697
:1008900000F026F90021204600F03DF9206802F022
:1008A000E1FC400405D5206830F8441F21F4804164
:1008B0000180206802F0D6FC800405D5206830F85D
:1008C000441F21F400510180206802F0CBFCC004D9
:1008D00014D5206830F8401F21F004010180206801
:1008E00030F8401F21F008010180204600F00BF98C
:1008F000206830F8441F21F480510180206802F004
:10090000B1FC00053ED522680020694632F820304F
:1009100021F81030401CC0B20828F7D332F8400F3D
:1009200040F001001080206830F8402F22F00102D2
:1009300002802068B0F844205205FBD530F8442FDF
:1009400022F4806202800020236831F8102023F80E
:100950002020401CC0B20828F6D3206830F8401F81
:1009600041F008010180206830F8441F21F4006143
:100970000180206830F8401F41F0040101802046CA
:1009800000F0FEF8206802F06DFC800508D52068B4
:1009900030F8441F21F400710180204600F0B7F8C0
:1009A000206802F05FFCC00505D5206830F8441FC0
:1009B00021F4807101801FBD2DE9F04186B0040053
:1009C00004D094F8A902002520B108E0012006B067
:1009D000BDE8F08184F8A852204600F05BF80320BF
:1009E00084F8A902206802F05FF904F110011422D2
:1009F00088466846FFF796FB94E80F0002F0BEF8C1
:100A00000226D0BB0021206802F046FC002001270E
:100A10000FE000BF00EB800104EBC10181F82970F9
:100A200001F8280FC881CD700D614D61401CC0B226
:100A30008D6161688142EDD8002011E000EB8001FA
:100A400004EBC10181F8695181F8680181F86B51AB
:100A5000C1F87851C1F87C51401CC0B2C1F8805136
:100A600061688142EAD8142241466846FFF75AFB82
:100A700094E80F0002F00FF910B184F8A962A5E71D
:100A800084F8245084F8A972206802F002F900204A
:100A90009DE7000008B500680F4988421AD10F4849
:100AA000C16941F40001C161C069002200F4000085
:100AB000009011461320FFF7DBFB1320FFF7CAFB62
:100AC000002211461420FFF7D3FBBDE80840142094
:100AD000FFF7C0BB08BD0000005C004000100240F2
:100AE00070B5044680680125022801D0FFF752FB4B
:100AF0002946D4F8E80201F0F2FBD4F8E802BDE898
:100B0000704001F0AEBBD0F8E80201F0D2BBD0F8E3
:100B1000E80201F0D8BB10B5044690F8A8020128FD
:100B20000BD0012084F8A80284F82410206802F079
:100B3000B5FB002084F8A80210BD022010BDD0F83B
:100B4000E82200F52C71104601F0D5BB10B5044623
:100B500090F8A802012810D0012084F8A80220688B
:100B600002F067FB01212046FFF7D2FB206802F06C
:100B70008EF8002084F8A80210BD022010BD0000ED
:100B800010B50446D0F8E80201F0F4FBA069002893
:100B900004D00348016841F00601016010BD000067
:100BA00010ED00E02DE9F84305460078354CC0070C
:100BB00054D0E0690026C00008D4E06940F08050BD
:100BC000E061E069012600F0805000902E48016845
:100BD000C90512D40168804641F480710160FFF7B5
:100BE000DBFA074605E000BFFFF7D6FAC01B642812
:100BF00023D8D8F80000C005F6D5206A10F440705C
:100C000021D0A98801F4407181421CD0206A1F497B
:100C1000012220F440700A6000220A602062C007AE
:100C200011D0FFF7B9FA074641F2883808E000BF53
:100C3000FFF7B2FAC11B414502D90320BDE8F88392
:100C4000206A8007F4D5206A696820F44070084360
:100C500020621EB1E06920F08050E06128788007B2
:100C600005D56068A96820F4404008436060287892
:100C7000C00605D56068E96820F48000084360601C
:100C80000020DBE7001002400070004040044242B8
:100C90002DE9F0470F46050061D0434E306800F063
:100CA0000700B84209D2306820F0070038433060AE
:100CB000306800F00700B84251D128683B4C8107EA
:100CC00012D5400703D5606840F4E0606060287882
:100CD000000703D5606840F4605060606068A968F0
:100CE00020F0F000084360602878C00728D06868CA
:100CF000012810D02168022810D0890700292EDA97
:100D0000616821F0030101436160FFF745FA804605
:100D100041F288390DE021688903EFE78901EDE7A9
:100D2000FFF73AFAA0EB0801494502D90320BDE8D4
:100D3000F0876068696800F00C00B0EB810FEFD1BC
:100D4000306800F00700B8420BD9306820F0070087
:100D500038433060306800F00700B84201D001200D
:100D6000E5E72878400705D56068E96820F4E06089
:100D7000084360602878000706D56068296920F478
:100D8000605040EAC100606000F018F86168084AED
:100D9000C1F30311515CC840064908600648006869
:100DA000FFF71AFA0020C2E70020024000100240BC
:100DB0007C3300087C0000207400002012A185B064
:100DC0000FC98DE80F0014A0144A00680490516800
:100DD000134801F00C03042B10D0082B0ED1C1F3E3
:100DE0008343C9031DF803000AD5516804AAC1F35F
:100DF0004041515C0A4A5043B0FBF1F005B07047E6
:100E000008494843FAE700000203040506070809F9
:100E10000A0B0C0D0E0F1010010200000010024012
:100E200000127A0000093D002DE9F84F040070D04F
:100E30002078C04DC00749D06868C0F38100012800
:100E400007D06868C0F38100022809D16868C00330
:100E500006D52868800339D560680028E7D035E0DA
:100E60006068B0F5803F0BD010B1B0F5A02F11D065
:100E7000286820F480302860286820F4802002E070
:100E8000286840F480302860606890B1FFF784F9EA
:100E900006460AE0286840F480202860F0E700BF9A
:100EA000FFF77AF9801B642873D828688003F7D588
:100EB0000CE0FFF771F9064605E000BFFFF76CF99B
:100EC000801B6428F0D828688003F7D420789A4ED5
:100ED00080074FF001094FF0000839D5686810F01D
:100EE0000C0F07D06868C0F38100022809D1686838
:100EF000C00306D42868800714D52069012808D1CA
:100F000010E02069B0B1C6F80090FFF745F9074638
:100F100005E00AE1FFF740F9C01B0228C4D82868A1
:100F20008007F7D52868616920F0F80040EAC10021
:100F300028600DE0C6F80080FFF72EF9074604E0B0
:100F4000FFF72AF9C01B022823D828688007F7D4A6
:100F5000207800072CD57948A169D9B1C0F8009054
:100F6000FFF71AF9074604E0FFF716F9C01B02283D
:100F70000FD8686A8007F7D571484FF4FA510068B6
:100F8000B0FBF1F0009000BF0098411E0091FAD232
:100F90000EE080E0C0F80080FFF7FEF8074604E0AE
:100FA000FFF7FAF8C01B022875D8686A8007F7D4E3
:100FB0002078400760D5E8690027C00008D4E869B8
:100FC00040F08050E861E869012700F0805000900F
:100FD0005C480168C90513D40168834641F48071F7
:100FE0000160FFF7D9F8824606E000BFFFF7D4F8AA
:100FF000A0EB0A0064284ED8DBF80000C005F5D548
:10100000E06801280AD008B1052813D0286A20F02A
:1010100001002862286A20F0040002E0286A40F0FB
:1010200001002862E06841F2883B98B1FFF7B4F80C
:1010300082460BE0286A40F004002862EEE700BF19
:10104000FFF7AAF8A0EB0A0159455AD8286A800789
:10105000F6D50CE0FFF7A0F8824605E0FFF79CF814
:10106000A0EB0A0159454CD8286A8007F6D41FB175
:10107000E86920F08050E861E06988B36968C1F3ED
:101080008101022944D00228C6F8608004D0FFF70D
:1010900083F8044638E034E0FFF77EF8074604E0C2
:1010A000FFF77AF8C01B02282BD828688001F7D4F4
:1010B000206AB0F5803F05D16868A16820F400304F
:1010C00008436860D4E908010843696821F4741191
:1010D00008436860C6F86090FFF75EF8044606E0D3
:1010E00025E000BFFFF758F8001B022809D8286840
:1010F0008001F7D51BE000BFFFF74EF8001B022868
:1011000002D90320BDE8F88F28688001F4D40EE0EE
:101110000128F7D06868226A00F48031914204D136
:10112000616A00F47010884201D00120EAE70020D3
:10113000E8E7000000100240000042428004424202
:101140007C0000200070004010B5401EB0F1807F90
:1011500001D3012010BD4FF0E02460610F21601722
:1011600002F0B6F80020A06107202061002010BD29
:10117000FEE70000F0B500230A24302537261F467D
:1011800011E000BFB4EB107F02D905EB107C01E049
:1011900006EB107C01F813C001EB430C00015B1C53
:1011A0008CF80170DBB29342ECD3F0BD70B5D0F88F
:1011B000B842054694F8180240B9D4F8140228B190
:1011C000607A18B90121284601F0C2F88121284629
:1011D00001F0BEF8607A022808D104F503722846AF
:1011E000BDE870401F23012101F032B870BD00003E
:1011F00070B5D0F8B84205460121D4F81002C4F801
:101200003002D4F81402C4F83402284600F0C8FFB3
:101210001F280DD12849D4F80C02884208D194F82F
:101220001912012904D894F81A0208B1102809D912
:1012300094F8191220230522284600F0CDFC022044
:10124000607209E004F21B22284600F091FA00289F
:10125000207A08DA052804D02846BDE87040FFF758
:10126000A5BF012122E0022825D0012823D0032890
:1012700021D06689CEB1D5F8B812284604F10C0207
:10128000D1F81432B34200D33346D1F834429BB282
:10129000A41BC1F83442002481F8384204240C72A3
:1012A000BDE87040812101F06EB800212846BDE8FC
:1012B000704000F083B870BD5553424310B5D0F86C
:1012C000B842627A022A08D009060BD5012A09D051
:1012D000BDE81040012100F071B8812101F038F81B
:1012E0000020607210BD10B5D0F8B8220446107A04
:1012F000022805D0032801D0042810D1002109E0DC
:1013000092F81912204602F21B2200F031FA00284E
:1013100005DA01212046BDE8104000F04FB810BDAD
:1013200010B5D0F8B8220446107A80B1012813D144
:1013300092F81912204602F21B2200F019FA002836
:101340000ADA2046BDE81040012100F037B82046F7
:10135000BDE81040FFF74CBF10BDD0F8B802002127
:101360000172704770B5D0F8B8420021054621726D
:10137000617284F85D1284F85C12D0F8BC020168D6
:10138000002088470121284600F001FF81212846DE
:1013900000F0FDFE04F503722846BDE870401F23EF
:1013A000012100F055BFD0F8B822002111720121AF
:1013B00051721F2302F5037200F04ABF70B5D0F8D6
:1013C000B84205460B48C4F82C0284F838120020B5
:1013D00020720D2304F50B728121284600F0D3FF03
:1013E00004F503722846BDE870401F23012100F078
:1013F0002FBF00005553425310B500220F4910482B
:1014000000F0FAFD08B1FEF7C5FE0E490C4801F0E8
:10141000D1F808B1FEF7BEFE0B49094801F026F8E5
:1014200008B1FEF7B7FE064801F01AF9002803D00C
:10143000BDE81040FEF7AEBE10BD00000000002069
:10144000280100208400002050000020FEE77047A3
:101450002DE9F84F044640F68F7B48F60F7A4FF09F
:1014600002094FF4806868E1B0F8441011F00F06EB
:1014700038D030F8267039047ED530F8261001EACD
:101480000B0141F0800120F8261006EB860004EBEA
:10149000C00595F8740105F5B47500286DD0E8789D
:1014A00002286BD02A78216831F8220048F68F7321
:1014B000184048F2C003184321F822002978206818
:1014C00030F82120B0F8503052047DD509EBC1012D
:1014D0005A1808EB4201415A8905890D009174D0D0
:1014E0002A89D2E0C9062DD4018801EA0A0141F413
:1014F00000410180206804F12805B0F850302A78B6
:1015000009EBC2015A1808EB4201405AC0F3090026
:101510006064E16B0844E06300212046FEF7F9FEB9
:1015200094F8240000289ED0A86900289BD194F844
:10153000240040F080012068A0F84C10002084F8BE
:101540002400FAE0018804F5B4750A0521D5B0F845
:1015500050302A78062101EBC2015A1808EB4201EB
:10156000405A04F52C71C0F30903EB61EA88206846
:1015700001F07CFE216802E0A2E062E072E00888EF
:1015800000EA0B0040F0800008802046FFF7D7FA01
:10159000D3E00904D5D5018801EA0B0141F08001AF
:1015A00001802068B0F850202B78062101EBC301A0
:1015B0000A4408EB4201405A83059B0DEB6110D0B1
:1015C000696971B1EA8801E053E051E0206801F0F7
:1015D0004DFEE96968690844686100212046FEF70C
:1015E000A1FE2068B0F850100844296900F20C40B0
:1015F00051B13E2910D84A08C90700D0521C4FF6F5
:10160000FF7101EA82210FE0018821F4F841018095
:10161000018841F4004107E04A09C90600D1521E81
:101620004FF4004141EA82210180206801884BF695
:101630008F72114081F4405148F2800211430180C1
:101640007BE02068B0F850102A78062303EBC20232
:101650000A4408EB4201415A8905890D009118D0CE
:10166000EA8812E03A4629462046FEF7B9FE009085
:101670000FE0062202EBC1015A1808EB4201415A61
:101680008905890D009104D06A896969009B01F080
:10169000EDFDE96900980844E8616969009808442B
:1016A0006861A86918B129690098814204D929782C
:1016B0002046FEF737FE03E02946206801F052FB82
:1016C00038063AD5226806EB860004EBC00132F8F2
:1016D000260000EA0A0040F4004022F8260091F8B3
:1016E0002B002831022801D1F80522D42268B2F853
:1016F00050300D7809EBC500034408EB4300105A45
:101700008A69C0F3090082420CD9121A8A610BD08F
:101710004A6902444A61CA691044C861206801F0FC
:1017200021FB0AE000208861E9B22046FEF7F1FDC6
:1017300003E03A462046FEF7C6FE2068B0F84410A3
:1017400009043FF591AE0020BDE8F88F704710B551
:10175000D0F8B8421A44D4F860329A4206D921230C
:10176000052200F039FA4FF0FF3010BD002010BD07
:101770002DE9F04113780024232B7DD00DDC1A2BAA
:101780007BD005DCEBB1032B39D0122B11D163E0F8
:101790001B2B01D01E2B0CD18DE02A2B6ED004DC2C
:1017A000252B6CD0282B04D1ABE02F2B68D05A2BE3
:1017B00067D02023052200F00FFA4FF0FF30BDE87C
:1017C000F081D0F8B87205460E46D7F8140228B159
:1017D000202397F81912052228469FE0D5F8BC026D
:1017E00081683046884740B13A2302223146284674
:1017F00000F0F2F9052038729AE07C8198E0D0F888
:10180000B80200214318491CC9B21C731229F9D32C
:10181000702101730C21C17490F85C1290F85D3254
:10182000994212D000EBC103491C93F83C528573D6
:1018300093F84152057693F84032C9B2437680F866
:101840005C12042901D180F85C4212214181117996
:1018500012296DD841816BE05478D0F8B832E40792
:1018600012D0072033495881401E0004000C03EBBE
:1018700000040A5C227305E03DE020E044E03DE026
:1018800045E02AE0F0D153E0D0F8BC0201EBC10101
:101890001279C06900EB81010879401D824200D8AD
:1018A0001046588104E0401E80B21C180A5C227366
:1018B0000028F8D13CE0D0F8B802448138E0D0F8F4
:1018C000B81208201C4A4881401E0004000C01EB9D
:1018D0000004135C2373F7D12AE0D0F8B802082182
:1018E000164A4181491E0904090C00EB0104535CAE
:1018F0002373F7D11CE000F038F919E000F00AF981
:1019000016E000F0BAF813E000F080F910E0527829
:10191000D0F8B852920704D52423052200F05CF9D0
:1019200006E0D5E99923FFF712FF002800DB6C8160
:10193000002044E78C330008933300089B330008F1
:101940002DE9F041D0F8B84206460F46B4F85E02E1
:10195000D4F868524FF4007145438D4200D30D46D0
:10196000B5FBF0F083B2D6F8BC0204F10C01D4F858
:101970006422D0F810C088463846E047002809DACB
:10198000112304223946304600F026F94FF0FF308B
:10199000BDE8F081ABB242468121304600F0F3FC55
:1019A000B4F85E02D4F86422B5FBF0F1B5FBF0F0B8
:1019B0001144C4F86412D4F86812081AC4F8680212
:1019C000D4F83412A1EB0501C4F8341201D103207C
:1019D00020720020DCE72DE9F047D0F8B842074636
:1019E0004FF40075B4F85E02D4F868628846464346
:1019F000AE4200D32E46B6FBF0F083B2D7F8BC025D
:101A000004F10C01D4F86422D0F814C08946404691
:101A1000E047002809DA032304224146384600F053
:101A2000DBF84FF0FF30BDE8F087B4F85E12D4F871
:101A30006422B6FBF1F01044C4F86402B6FBF1F086
:101A4000D4F86822101AC4F86802D4F83422A2EB41
:101A50000602C4F834220BD04843A84200D32846DB
:101A600083B24A460121384600F0F2FB0020DAE753
:101A700000213846FFF7A2FCF8E72DE9F041D0F845
:101A8000B84206461546207A8846C8BB94F8180224
:101A90004FF0FF3700062ED5D6F8BC0281684046CD
:101AA000884730B13A2302224146304600F094F88C
:101AB00013E0D5F80200414600BA20F0FF02687931
:101AC0000243C4F86422B5F8070043BA3046C4F8AC
:101AD0006832FFF73CFE002802DA3846BDE8F081A4
:101AE00002202072B4F85E12D4F868024843D4F899
:101AF0001412884205D0202394F819120522D4E745
:101B0000FFE74FF40070608141463046BDE8F04188
:101B1000FFF716BF70B505460E46D5E9AE4004F294
:101B20005E224368911C3046984740B13A23022216
:101B30003146284600F050F84FF0FF3070BDD4F821
:101B40006002401E010E2173010C6173010AA17332
:101B5000E073002020746074B4F85E02010AA1747E
:101B6000E07408206081002070BD2DE9FC4105462D
:101B7000D0F8B84200200F4606462118401C80B21B
:101B80000E730C28F9D3D5F8BC026A4601A9436844
:101B90003846984748B13A2302223946284600F091
:101BA0001BF84FF0FF30BDE8FC810820E07301987E
:101BB000401E010E2174010C6174010AA174E074CD
:101BC000022020756675BDF80000010AA175E07558
:101BD0000C2060810020E6E7D0F8B80290F85D1292
:101BE00000EBC10181F83C2290F85D22002100EB5E
:101BF000C20282F8401290F85D22521CD2B280F8E4
:101C00005D22042A01D180F85D1270472DE9F04170
:101C1000D0F8B84205461746207A884620B12846B3
:101C2000BDE8F041FFF7D7BE94F818024FF0FF3639
:101C3000000635D4D5F8BC0281684046884728B1F3
:101C40003A230AE02846FFF7C7FF1DE0D5F8BC029B
:101C5000C1684046884718B1272302224146F1E770
:101C6000D7F80200414600BA20F0FF02787902431B
:101C7000C4F86422B7F8070043BA2846C4F86832AB
:101C8000FFF765FD002802DA3046BDE8F081B4F8C0
:101C90005E02D4F868124143D4F81402884204D09A
:101CA000202394F819120522CCE74FF400708142EA
:101CB00000D3014601208BB22072014604F10C02D0
:101CC000284600F0C5FA0020DFE74FF480300860B6
:101CD000C01110800020704700207047002070471E
:101CE0000020704700207047002070470020704798
:101CF0007047FEF757BA30B593B028216846FEF713
:101D00002AFA14210AA8FEF726FA002401200F94CB
:101D100010941194010412948DE8130004900005AE
:101D2000CDE90810022507956846FFF77DF80F20DA
:101D3000CDE90A056802CDE90C4001210AA80E94FC
:101D4000FEF7A6FF10200F90800412900FA8FEF758
:101D500029FF13B030BD704710B5D0F8B4225268D7
:101D60009047002010BD134610B50A46002100F030
:101D70006FFA002010BD134610B50A46002100F08E
:101D800002FB002010BD10B50446802100F0E0FAEF
:101D90002046BDE81040002100F0DABA10B5052158
:101DA0000023C0F894121A46194600F051FA002098
:101DB00010BD10B50223C261C0F89432026213460E
:101DC0000A46002100F0DFFA002010BD10B5042102
:101DD0000023C0F894121A46194600F0D4FA0020E5
:101DE00010BD000010B50A46024903A000F0D4F867
:101DF000004810BD480900204D534320436F6E66D4
:101E00006967000012200880004870472000002009
:101E100010B50A46024903A000F0BEF8004810BD04
:101E2000480900204D534320496E74657266616312
:101E30006500000004200880004870471C00002056
:101E400010B50A46024903A000F0A6F8004810BDEC
:101E500048090020686179616F00000010B50A46EA
:101E6000024903A000F098F8004810BD480900207E
:101E7000686179616F00000010B51A2008800A4877
:101E80000168001D0468001D0068081809D00822B8
:101E90000649FFF76FF90549042210312046FFF784
:101EA00069F90248801E10BDE8F7FF1F36000020C8
:101EB000F8B504460020ADF8000048880D46010A38
:101EC000082948D2DFE801F04704091747473C4595
:101ED000D4F8B012207C0A6819E0207C0226002881
:101EE000D4F8B40205D0C16A6846884701464670F6
:101EF0003EE0816AF8E7C0B206282CD2DFE800F0A5
:101F0000030A1014181CD4F8B002426805E06946B0
:101F100090471CE0D4F8B0028268E2B1207CF6E77A
:101F2000D4F8B002C268F8E7D4F8B0020269F4E766
:101F3000D4F8B0024269F0E7D4F8B0028269ECE765
:101F4000207C40B9D4F8B402416B6846884701460A
:101F50000EE0207C20B129462046FFF714FFF8BD93
:101F6000D4F8B402016B68468847014607204870E0
:101F7000BDF8000048B1EA8852B1824200D9024659
:101F8000ADF800202046FFF714FFE8880028E6D1CE
:101F90002046FFF71BFFF8BD70B5002300281ED0B8
:101FA0000446002502E06D1CEDB2641C2678002E6C
:101FB000F9D1022404EB450414801278CA545B1C46
:101FC0000322CA5400245B1C06E0CA545B1CDAB22C
:101FD0008C54521CD3B2401C0278002AF5D170BD3B
:101FE00001004FF0000004D0012901D0022901D0E6
:101FF000022070470120704710B580B1D0F8B4328C
:1020000013B10023C0F8B43209B1C0F8B0120121F5
:1020100080F89C12027000F0C7F8002010BD02206A
:1020200010BD10B5D0F8C002FEF7ACF9BDE8104005
:10203000FFF7D6BF10B5D0F8C002FEF77DF9BDE8B6
:102040001040FFF7CDBF2DE9F0411746044651B1CE
:10205000D4F8B40242691AB194F89C02032851D012
:102060000220BDE8F081D4F89432002504F1140078
:10207000022B03D0042B3AD0C3B33CE0D0E9036376
:102080009E4207D9F11AC1608AB239462046FFF74D
:1020900072FE12E08068B0FBF3F103FB110199B905
:1020A000984211D3D4F8981288420DD200221146DA
:1020B0002046FFF760FEC4F8985200231A461946DE
:1020C000204600F0C5F816E0D4F8B402C16829B182
:1020D00094F89C02032801D120468847802120469D
:1020E00000F036F92046FFF759FE04E0FFE78021B3
:1020F000204600F02DF994F8A002012804D184F8BC
:10210000A05201E0204690470020AAE770B515468E
:10211000044649B1D4F8B40282691AB194F89C0219
:10212000032830D0022070BDD4F8941204F5AA70B0
:10213000032902D005291ED027E0D0E903218A42D5
:102140000BD9531AC3600846834200D303469AB2A0
:1021500029462046FFF707FE17E0D4F8B4020169CC
:1021600029B194F89C02032801D1204688472046D3
:10217000FFF72CFE09E000200146C4F89402204637
:1021800000F0E6F801E020469047002070BD10B551
:10219000D0F8C002FEF7A7FABDE81040FFF720BF55
:1021A000D0F8C002FEF7B9BA10B519490446C1F813
:1021B000E802C0F8C01217480860082048600220F2
:1021C000886000208861C86108620846FEF7F4FB59
:1021D00008B1FDF7DFFF0022D4F8C0021823114632
:1021E00004F53074FEF776F8582300228021206829
:1021F000FEF770F89823002281212068FEF76AF824
:10220000D823002201212068FEF764F8002010BDC9
:102210005C060020005C00400A0601F07F01D0F857
:10222000C00201EB810100EBC10002D590F82A0049
:10223000704790F86A01704710B51C461346D0F8F5
:10224000C0022246FEF772FABDE81040FFF7C8BE92
:1022500010B5D0F8C002FEF799FABDE81040FFF7BC
:10226000BFBE70B50022044640231146FFF7E4FFCD
:1022700040260125C4F864613346002280212046AF
:10228000C4F85851FFF7D8FF6662A56184F89C52E4
:102290000020C4F894026060C4F8A402D4F8B80224
:1022A00028B1D4F8B40200214268204690470020AB
:1022B00070BD90F89C12042903D190F89D1280F80B
:1022C0009C120020704710B590F89C12032904D18D
:1022D000D0F8B412C96901B18847002010BD01745B
:1022E0000020704710B5D0F8C002FEF714FCBDE81E
:1022F0001040FFF775BE70B5044600F52A7005461C
:1023000000F044F90120C4F89402B4F8AE02C4F815
:10231000980294F8A80210F01F010AD001290DD0EC
:10232000022910D000F08001204600F011F80020B2
:1023300070BD2946204600F098F9F8E72946204666
:1023400000F0C4FAF3E72946204600F017FAEEE75A
:1023500010B5D0F8C002FEF732FABDE81040FFF722
:102360003FBE10B5D0F8C002FEF7F0FBBDE810404C
:10237000FFF736BE90F89C1280F89D12042180F879
:102380009C120020704710B5D0F8C002FEF750FA3A
:10239000BDE81040FFF724BE10B5FEF7A4FF0020F3
:1023A00010BD10B5FEF7BCFF002010BD70B504468F
:1023B0000121FFF73FFE002581212046C4F86C5122
:1023C000FFF738FE2046E562FEF7C7FFD4F8B802F3
:1023D00018B100F0A2FAC4F8B852002070BD000095
:1023E0000A210180004870471C0100202021018043
:1023F00000487047DC000020202101800048704721
:10240000BC0000202021018000487047FC00002013
:1024100070B50446007C0125D0B140230222012181
:102420002046FFF709FF4023C4F86C5102228121A6
:102430002046FFF701FF4FF41B70E56200F06EFAD3
:10244000C4F8B80280B12046FEF78CFF002070BDB2
:102450004FF400763346022201212046FFF7ECFEBE
:102460003346C4F86C51E1E7022070BD09B1C0F8F1
:10247000BC12002070472DE9F8430026D0F8B8724E
:102480000546ADF8006008780C46B04610F06001D3
:1024900020D020293DD16178FE2902D0FF2938D1F2
:1024A0000EE0618881BBE188012932D1000630D578
:1024B000D5F8BC02806980470122394638601FE0A8
:1024C000618809BBE188F9B9000622D42846FEF7E5
:1024D0006AFF23E0607830B1012825D00A2809D0AE
:1024E0000B2816D111E095F89C02032811D1022285
:1024F000694605E095F89C0203280AD10122391D9E
:102500002846FFF756FC09E003E095F89C020328F3
:1025100007D021462846FFF736FC02263046BDE8A4
:10252000F883A0787860F9E721792846FFF72FFE35
:1025300021792846FFF77EFDA0884FF001070106AC
:1025400000F00F0000EB80004FF4007305EB8000FB
:102550000BD5C0F81880287C00B1402302228121CD
:102560002846FFF769FEEF620BE0C0F85881287C2F
:1025700000B14023022201212846FFF75DFEC5F885
:102580006C7121792846FEF799FEC7E70A78027038
:102590004A7842708A78CB7802EB032242800A792B
:1025A0004B7902EB032282808A79C97902EB0121FF
:1025B000C18070470246002011B1C2F8B4127047C2
:1025C0000220704710B5D0F8B42202241AB1126864
:1025D000904700B90024204610BD000070B50E469B
:1025E0001E4D897804462970012931D894F89C023F
:1025F00002280BD003280FD031462046FFF7C3FB3B
:1026000029782046BDE87040FFF7A6BBD9B103206A
:10261000616084F89C0209E071B16068884212D060
:10262000C1B22046FFF798FB297861602046FFF78A
:10263000C9FF02280CD006E0022084F89C02204644
:102640006160FFF789FB2046BDE87040FFF7BEBB25
:1026500031462046BDE87040FFF795BB8000002062
:1026600010B5FFF77EFE002010BD2DE9F0410A787D
:10267000002612F0600208D0202A01D0402A70D132
:10268000D0F8B422926890476DE04B780022012583
:102690000A2B66D2DFE803F0405D655765080565E3
:1026A0002C29FFF705FC5EE004468888D8B9C88865
:1026B000C8B94888802816D200F07F0794F89C0299
:1026C000032810D084F89E7239462046FFF70AFE90
:1026D0002046FFF77BFB1FB1022084F89C0242E0FA
:1026E00084F89C523FE020463BE0FFF777FF3AE05A
:1026F000CB88012B35D190F89C32012B04D0022BD2
:1027000002D0032B2DD104E08260012200F10801E8
:1027100016E00122011D13E090F89C22012A03D04B
:10272000022A01D0032A1CD1CA88022A19D1C56005
:10273000D0F8A41209B10321C160022200F10C01FA
:10274000FFF737FB0FE0498801290CD1C0F8A452EC
:1027500011E090F89C32012B08D0022B06D0032BFD
:1027600004D0FFF710FB3046BDE8F081498801290D
:10277000F9D1C0F8A422FFF729FBF4E72DE9F041D5
:102780000A46044610780027097910F060030AD041
:10279000202B01D0402B50D1D4F8B40211468368CD
:1027A000204698478FE0C0F34110012806D05078AA
:1027B000D0B301282AD003283FD107E0D4F8B402CF
:1027C000114683682046BDE8F041184794F89C0202
:1027D000022802D0032872D10AE071B380296ED09A
:1027E0002046FFF7B5FD80212046FFF7B1FD6AE0E6
:1027F000508838B931B1802904D0D08810B920462A
:10280000FFF7A6FD2046FFF7E1FA5CE094F89C0292
:102810000228E2D0032852D1508898BB4806F1D054
:102820002046FFF7FEFBEDE7FFE794F89C02002649
:10283000022803D0032842D112E040E009B18029E8
:102840003DD1080601F07F0000EB800004EB800121
:1028500001D5143101E001F5AA7102220E602AE0CF
:10286000080601F00F0000EB800004EB80000AD5A1
:10287000806920B301F07F0000EB800004EB80054D
:1028800014350BE01FE0D0F85801C0B101F07F0013
:1028900000EB800004EB800505F5AA7541B18029A5
:1028A00006D02046FFF7B8FC10B10120286000E0F8
:1028B0002E60022229462046FFF77BFA03E01146EC
:1028C0002046FFF760FA3846BDE8F08170B505464E
:1028D00008780C4610F0600003D0202801D0402872
:1028E00016D195F89C02012803D0022801D00328B4
:1028F0000ED1207901280BD8D5F8B4028268284679
:102900009047E188014306D12846FFF75FFA02E0CD
:102910002846FFF738FA002070BD7047004870471E
:10292000EC0300202DE9F0470C78002630F8243025
:1029300048F68F121340CA78002A7DD0012A7CD035
:10294000022A02D0032A7FD0012648F280021343D4
:1029500020F824300D7830F8254048F68F731C405D
:102960002C43144320F825400D7B48F2C00C48F658
:10297000BF744CF280074BF68F79EDB391F800806D
:10298000C24630F8285048F280181D4045EA080534
:1029900020F82A50B0F8505091F80080054405EB1B
:1029A0000815B1F8088028F00108A5F80084B0F8EF
:1029B000505091F80080054405EB0815B1F80A80E5
:1029C00028F00108A5F808844D78002D0D7830F81E
:1029D00025804FEA48487DD0B8F1000F07DA30F87B
:1029E000258008EA030848EA070820F825800F78C0
:1029F00030F827506D0600E02CE006D530F827505F
:102A00001D4045EA0C0520F82750CB780D78012BA6
:102A100030F8253003EA040301D083F02003134388
:102A200020F825300B7830F8231001EA0901114312
:102A300020F82310304602E003E008E004E0BDE89F
:102A4000F08743F4007380E743F4C0637DE743F409
:102A500080637AE74D782DB3B0F850500F78054475
:102A600005EB0715CF8827F00107A5F800740F784C
:102A700030F827506D0606D530F827501D4045EA3E
:102A80000C0520F82750CB78012B06D00B7830F8B6
:102A90002310214081F02001C9E70B7830F8231082
:102AA0002140C4E7B0F850400D78044404EB05140D
:102AB000CD8825F00105A4F80854B0F850400D78F1
:102AC000044404EB05140D6904F20C4475B13E2D69
:102AD00014D800E030E04FEA550CED0701D00CF1BE
:102AE000010C4FF6FF7505EA8C2511E0258825F4C9
:102AF000F8452580258845F4004509E04FEA551C36
:102B0000ED0601D1ACF1010C4FF4004545EA8C25EE
:102B100025800D7830F82540640405D530F825402F
:102B20001C403C4320F825400B7830F8231001EA84
:102B3000090181F440517AE7B8F1000F07DA30F863
:102B4000258008EA030848EA070820F825800F785E
:102B500030F827506D0606D530F827501D4045EA5D
:102B60000C0520F827500D7830F8253003EA0903CA
:102B700083F44053134320F825308EE7002070473C
:102B80002DE9F04391F80C804F780A7848F6BF7C25
:102B90004BF68F7948F2800348F2C0054CF280066C
:102BA00048F68F74B8F1000F28D0002F30F822704B
:102BB0004FEA474748D0002F05DA30F82270274007
:102BC000374320F822700A7830F822707F0605D546
:102BD00030F8227027402F4320F822700D7830F80B
:102BE00025202240324320F825200C7830F824207C
:102BF00002EA0C021A4320F824201AE07FB130F8D0
:102C00002260760605D530F8226026402E4320F853
:102C100022600A7830F8221001EA0C010EE030F848
:102C200022506D0405D530F822502540354320F858
:102C300022500A7830F8221001EA0901194320F8DD
:102C400022100020BDE8F083002F05DA30F8227052
:102C50002740374320F822700A7830F82260760641
:102C600005D530F8226026402E4320F822600E78E9
:102C700030F8262022402A4320F826200C7830F80D
:102C8000242002EA09021A4320F82420C1E7002088
:102C9000704700207047012120F8401F002101806B
:102CA000818001820846704730F8401F21F43F417F
:102CB0000180002070470020704730B50A7BB2BB0E
:102CC0004A7848F68F7548F28004C2B10B7830F824
:102CD0002320520607D530F823202A4048F2C005A9
:102CE0002A4320F82320CA78012A20D00A7830F815
:102CF000221048F6BF73194081F0200114E00A78D1
:102D000030F822305B0407D530F822302B404CF2EB
:102D100080052B4320F822300A7830F822104BF639
:102D20008F73194081F44051214320F82210002074
:102D300030BD10B54A780978002A48F2800330F88F
:102D4000212005D048F6BF74224082F0100204E032
:102D50004BF68F74224082F480521A4320F82120CF
:102D6000002010BD2DE9F04F0D464A78097B04463E
:102D70004FF0000948F68F7A48F2800B4FF6FF7744
:102D80004FF40048012A09D000297DD0E8780228B4
:102D90007BD001287AD00120BDE8F08FAE69286988
:102DA000864200D9064681B1E97802291CD02878EC
:102DB00034F820104906B4F85010214401EB0010FB
:102DC00070D5A0F80C646A8928E1B3B2EA8820467D
:102DD000696900F069FAB4F850002978204400EBE2
:102DE0000110A0F8046435E1296A814276D9297876
:102DF00034F8210048F2801200EA0A00104324F857
:102E00002100286A801B2862287834F8201049069F
:102E1000697876D511B1012921D027E0B4F8501096
:102E2000214401EB001000F20C404EB13E2E0FD8B1
:102E30007108F20700D0491C07EA8121018015E0E2
:102E4000018821F4F8410180018841F40041F5E74F
:102E50007109F20600D1491E48EA8121EEE7B4F873
:102E60005020111901EB0010A0F80C646A89B3B26C
:102E70002046696900F018FA686930446861296978
:102E8000286A884206D902E0EDE00DE178E1801B76
:102E9000286202E00646C5F82090687818B101283B
:102EA00024D02BE0B7E0B4F850002978204400EBA0
:102EB000011000F204404EB13E2E10D87108F20706
:102EC00000D0491C07EA8121018017E0018821F424
:102ED000F8410180018841F40041F5E786E071097D
:102EE000F20600D1491E48EA8121EDE7B4F850000E
:102EF0002978204400EB0110A0F804642A896FE0CF
:102F0000FFE711B1012921D027E0B4F85010214486
:102F100001EB001000F204404EB13E2E0FD87108B4
:102F2000F20700D0491C07EA8121018015E00188E1
:102F300021F4F8410180018841F40041F5E771096D
:102F4000F20600D1491E48EA8121EEE7B4F850109C
:102F5000214401EB0010A0F804642A89B3B2204692
:102F6000696900F0A1F96869304468612969286AD3
:102F7000884202D9801B286202E00646C5F82090EC
:102F8000687810B1012822D029E0B4F850002978DF
:102F9000204400EB011000F20C404EB13E2E0FD841
:102FA0007108F20700D0491C07EA8121018016E070
:102FB000018821F4F8410180018841F40041F5E7DE
:102FC0007109F20600D1491E48EA8121EEE7B4F802
:102FD00050100819297800EB0110A0F80C646A89D8
:102FE000B3B22046696900F05FF933E02A7834F81B
:102FF000220048F68F63184040EA0B0024F82200B4
:10300000B4F850002A78204400EB02108BB2A0F8EC
:1030100004342A89E5E7A0F804642A89B3B220467B
:10302000696900F041F9687810B1012808D011E011
:10303000297834F8210048F2C00200EA0A0006E0CC
:10304000297834F821004CF2800200EA0A0010438B
:1030500024F82100297834F8210048F6BF72104086
:1030600080F03000DFE0A9692869814202D9091A9D
:10307000A961B6E00846C5F81890B2E0088820F4C7
:10308000F8400880088840F400400BE03E2876D8DD
:103090004208C00700D0521C07EA822002E000BFAD
:1030A00048EA82200880B6E092B9B4F85000297846
:1030B000204400EB0110296900F2044069B13E2967
:1030C00013D84A08C90700D0521C07EA82210180A0
:1030D000687888B1012832D03AE0018821F4F841BB
:1030E0000180018841F40041F1E74A09C90600D195
:1030F000521E48EA8221EAE7B4F8500029782044B9
:1031000000EB0110296900F20C4049B13E290FD8AB
:103110004A08C90700D0521C07EA8221018017E043
:10312000018821F4F8410180018841F40041F5E76C
:103130004A09C90600D1521E48EA8221EEE7B4F8D6
:1031400050100819297800EB0110298AA0F80C14F6
:10315000E869B0B3297834F82100420401D5420669
:1031600003D444F24002104255D134F8210048F211
:10317000C00200EA0A00104324F821004BE03CE0C2
:10318000A9692869814202D9091AA96102E00846A1
:10319000C5F818908AB9B4F850102A78214401EB88
:1031A000021101F2044168B13E2813D84208C30756
:1031B00000D0521C07EA82220A80697889B101296D
:1031C00021D028E00A8822F4F8420A800A8842F4D2
:1031D0000042F1E74209C30600D1521E48EA8222AA
:1031E000EAE7B4F850102A78214401EB021101F209
:1031F0000C4100287FF44AAF40E74209C0067FF443
:103200004FAF521E4CE7B4F8502011192A7801EB49
:103210000211A1F80C04297834F821004BF68F72C2
:10322000104080F4405040EA0B0024F821000020B8
:10323000B2E50021A0F844104FF43F41A0F840103F
:103240000020704700207047002070470148FDF7BC
:1032500009BB00005C0600200148FDF703BB00002D
:103260005C060020B0F844007047000010B500EB89
:1032700042005C0800F5806009D000BF30F8042BE4
:1032800001F8012B120A01F8012B641EF6D1DA07AE
:1032900001D00088087010BD0020704711B980214E
:1032A000A0F84C100020704710B55B1C00EB4200EA
:1032B0005B0800F5806009D011F8012B11F8014B73
:1032C00042EA042220F8042B5B1EF5D110BDFEE774
:1032D0000907090E002804DB00F1E02080F8001443
:1032E000704700F00F0000F1E02080F8141D7047D7
:1032F00002E008C8121F08C1002AFAD170477047BF
:10330000002001E001C1121F002AFBD1704700001C
:1033100008B5FCF74FFFFEF7EEFC0E48816941F05F
:1033200010018161816901F010010091816941F012
:1033300020018161816901F020010091816941F0E2
:1033400004018161806900F004000090FEF754F8E8
:10335000FEE7000000100240008002021F00000093
:1033600053544D202020202050726F6475637420C8
:103370002020202020202020302E3031000000008E
:103380000000000001020304060708090000000312
:103390000080830000000000000000000600000024
:1033A00000000000C43300080000002028010000D5
:1033B000F0320008EC34000828010020200E000044
:1033C00000330008051E0008351E0008411E0008D5
:1033D0005D1E0008791E0008E51D0008111E00088A
:1033E00004030904120100020000004083042A576C
:1033F00000020102030100001A03000000000000A7
:1034000000000000000000000000000000000000BC
:1034100000000000DD1C0008CB1C0008E11C0008B7
:10342000E51C0008E91C0008ED1C0008D91C000878
:1034300058330008010000001000000000000000E8
:103440000024F4000000000011240008AD2300084F
:103450007724000800000000000000009923000805
:10346000A32300080000000000000000000000008E
:10347000F9230008ED23000805240008E1230008D3
:1034800009022000010104C03209040000020806FC
:103490005005070581020002000705010200020035
:1034A00009022000010104C03209040000020806DC
:1034B0005005070581024000000705010240000099
:1034C00009072000010104C03209040000020806B7
:1034D0005005070581024000000705010240000079
:0C34E0000A06000200000040010000008D
:04000005080000ED02
:00000001FF
